:1000000089C0FEC1A2C0A1C0A0C053C333C39DC05C
:100010009CC09BC09AC099C098C097C096C095C01C
:1000200094C093C092C009022200010100800A0915
:100030000400000103000000092101010001223237
:10004000000705810308000A1201100100000008E2
:10005000C016DB270001010203012C0374006800B5
:100060006F006D006100730070006600650069003C
:100070006600650072002E006E00650074003A0094
:100080003000300031003403500050004D00320089
:100090005500530042002D00740068006F006D0091
:1000A000610073007000660065006900660065000D
:1000B00072002E006E006500740024037400680056
:1000C0006F006D00610073007000660065006900DC
:1000D0006600650072002E006E0065007400040367
:1000E00009040501150026FF0075080904A101098E
:1000F00001A1000930093195028182C0A1000932B5
:10010000093395028182C0093409350936093795CA
:10011000048182C011241FBECFE5D4E0DEBFCDBF75
:1001200010E0A0E6B0E0E2EBF8E002C005900D922E
:10013000A436B107D9F710E0A4E6B0E001C01D92E3
:10014000A73BB107E1F756D3B2C35ACFCF93C62F1F
:100150002091790024FF07C020917A0038E82327F6
:1001600020937A0003C02AE520937900DC01EBE7B5
:10017000F0E09C2F9E0F8D918193892F8E1B181676
:10018000D4F36C2F8BE790E037D1CC5FC09379002C
:10019000CF910895CF93DF9380918A00835087FD9C
:1001A000B2C090918700209186002D3209F0A9C03D
:1001B000883009F0A6C0CCE0D0E0C91BD109C257F5
:1001C000DF4F83EC80936E008AE58093610010928C
:1001D00064008881807619F0CE01EBD289C09A81C3
:1001E000109277008981811106C01092780027E76C
:1001F00030E082E079C0853019F490938B0071C0B3
:10020000863009F058C08B81813041F488E490E059
:10021000909389008093880082E149C0823041F444
:1002200086E290E0909389008093880082E23FC04C
:10023000833041F5911108C08EED90E090938900D4
:100240008093880084E033C0913041F48AEB90E0E1
:10025000909389008093880084E229C0923041F411
:1002600086E890E0909389008093880084E31FC023
:100270009330E1F48AE590E09093890080938800C0
:100280008CE215C0813241F488E390E090938900BC
:100290008093880089E00BC0823241F482EE90E0C6
:1002A000909389008093880082E301C080E090E40D
:1002B000909364001DC0883069F0893019F49093E0
:1002C0008D000FC08A3049F08B3059F48BE4809355
:1002D0007A0007C02DE830E002C027E730E081E077
:1002E00003C027E730E080E0309389002093880046
:1002F0009F81911104C09E81981708F4892F8093E3
:10030000600010928A008091610084FF46C0809155
:1003100060008F3F09F441C0C82F893008F0C8E061
:100320008C1B8093600080916E0098E889278093F1
:100330006E00CC2331F120918800309189008091AA
:10034000640086FF0BC0AFE6B0E0F9018C2F8A0F86
:1003500094919D9331968A13FBCF09C0D901EFE6A2
:10036000F0E08C2F8E0F9D9191938E13FCCF8FEF29
:100370008C0F90E00196820F931F909389008093D9
:1003800088006C2F8FE690E037D0CC5FCC3019F02E
:100390008FEF80936000C093610084E196B3937007
:1003A00031F48150D9F710928B0010928500DF91C3
:1003B000CF91089585B7826085BF8BB780648BBF6E
:1003C0008BE480937A008AE5809379000895A82FC2
:1003D000B92F80E090E041E050EA609530E009C03C
:1003E0002D9182279795879510F084279527305E69
:1003F000C8F36F5FA8F30895EADF8D939D93089586
:10040000CF93CFB7CF93C395B09BE9F7B09B09C00B
:10041000B09B07C0B09B05C0B09B03C0B09B01C0A0
:10042000A3C0DF93C0918700DD27C257DF4FB09B89
:1004300002C0DF91EBCF2F930F931F9306B32FEFE3
:1004400000FB20F94F933F9316B34FEF012700FBBA
:1004500021F93BE031C04E7F012F16B3216028C047
:10046000102F4D7F2260000006B329C04B7F24600F
:10047000012F000016B32BC016B3477F28602AC097
:100480004F7E06B320612CC04F7D16B320622FC073
:100490004F7B06B3206432C0422706B349934FEF27
:1004A0000000102710FB20F916B31370C9F1297F43
:1004B00091F2012700FB21F906B3237F89F2315025
:1004C00058F1102710FB22F916B3277E79F2012785
:1004D00000FB23F92F7C81F206B3102710FB24F9CF
:1004E0002F7971F200C016B3012700FB25F92F7395
:1004F00059F200C006B3102710FB26F9223040F253
:1005000000C016B3012700FB27F9243028F64F77E7
:10051000206816B30000F9CF10E41ABF002719C0F5
:100520003B503195C31BD04010E41ABF0881033CF7
:10053000F9F00B34E9F0209185001981110F1213A5
:10054000EDCF4A81441F093641F10D3211F0013ED1
:1005500029F700938C003F914F911F910F912F919C
:10056000DF91CAB7C6FD4FCFCF91CFBFCF911895BE
:1005700020918C00222379F310918A00112369F5D0
:1005800034306AF130938A002093860010918700FE
:100590003BE0311B3093870022C000918A0001307C
:1005A000E4F40AE54F7049F43091610034FD19C05C
:1005B00000936100CEE6D0E018C03091790034FDA0
:1005C00010C000937900CAE7D0E00FC02795A8F4C7
:1005D0005150A9F4220F0000F9CF4AE503C042EDC3
:1005E00001C0432FC4E1D0E032E017B31360C09ADA
:1005F00017BB08B320E413E05F93012756E008BB64
:10060000279520F4515021F4220FF9CF012756E00D
:1006100000003B5A08BBD0F2279528F4515029F42A
:10062000220F0000F9CF012756E0279508BB20F4E0
:10063000515021F4220FF9CF012756E0299133239D
:1006400008BB21F60C7F10918B00110FC651D040D2
:1006500008BB11F01093850010E41ABF016017B3B6
:100660001C7F402F4C7F5F9100C000C008BB17BBB0
:1006700048BB71CF1F920F920FB60F9211242F9388
:100680008F939F938091620090916300019619F07F
:1006900081E08093B6008FEF9FEF9093630080938B
:1006A00062009F918F912F910F900FBE0F901F901E
:1006B00018951F920F920FB60F9211242F933F930C
:1006C0008F939F93EF93FF9386B597B59C01205628
:1006D00033473BBD2ABD2091B4003091B500209135
:1006E000B4003091B500821B930B26B537B530931B
:1006F000B5002093B400209162003091630037FD73
:1007000011C020916200309163002830310554F40B
:10071000E0916200F0916300EE0FFF1FEC55FF4F78
:100720009183808380916200909163000196909301
:1007300063008093620085B392E0892785BBFF91B7
:10074000EF919F918F913F912F910F900FBE0F903E
:100750001F90189581E08EBD8EB580688EBD8EB5D8
:1007600080648EBD429A469A80E389BF1092B6009B
:100770008FEF9FEF90936300809362000895FC01D8
:10078000EE0FFF1FEC55FF4F80819181803E2EE2DE
:10079000920710F480EE9EE2805E9E426FE270E06F
:1007A00072D06F3F710519F010F06FEF70E0862F77
:1007B0000895FC01808180768032D1F4818181307E
:1007C00041F486E690E0909389008093880088E069
:1007D0000895823041F485E690E0909389008093FB
:1007E000880081E008958A3019F483818093650040
:1007F00080E008952EE088E190E00FB6F894A89587
:1008000081BD0FBE21BDA6DFD5DDB89A80E0815045
:1008100041F0A895E7EBFBE03197F1F700C000004D
:10082000F6CFB89884B3836084BB789481E08093DA
:10083000B600F12CA895AEDC8091B6008823D1F3E8
:100840001092B60006E610E0C0E0D0E0CE0197DFDF
:10085000F8019081981719F08083FF24F394219672
:100860000F5F1F4FC830D10589F7FF2019F3809122
:10087000790084FD03C0FF24F394DCCF68E086E6B2
:1008800090E064DCD6CFAA1BBB1B51E107C0AA1FB6
:10089000BB1FA617B70710F0A61BB70B881F991F21
:1008A0005A95A9F780959095BC01CD010895F894CB
:0208B000FFCF78
:0408B200FF5AFFFFEB
:00000001FF
